:020000040800F2
:10000000380A00205D0A0008B90A0008B90A000889
:10001000B90A0008B90A0008B90A0008000000007F
:10002000000000000000000000000000B90A000805
:10003000B90A000800000000B90A000811140008FD
:10004000B90A0008B90A0008B90A0008B90A000884
:10005000B90A0008B90A0008B90A0008B90A000874
:10006000B90A0008B90A0008B90A0008B90A000864
:10007000B90A0008B90A0008B90A0008B90A000854
:10008000B90A0008B90A0008B90A0008B90A000844
:10009000B90A0008B90A0008B90A0008B90A000834
:1000A000B90A0008B90A0008B90A0008B90A000824
:1000B000B90A0008B90A0008B90A0008B90A000814
:1000C000B90A0008B90A0008B90A0008B90A000804
:1000D000B90A0008B90A0008B90A00088D09000821
:1000E000B90A0008B90A0008B90A0008B90A0008E4
:1000F000B90A0008B90A0008B90A0008B90A0008D4
:10010000B90A0008B90A0008B90A0008B90A0008C3
:10011000C1090008F5090008B90A0008B90A000871
:10012000B90A0008B90A0008B90A0008B90A0008A3
:10013000B90A0008B90A0008B90A0008B90A000893
:10014000B90A0008B90A0008B90A0008B90A000883
:10015000B90A0008B90A0008B90A0008290A000803
:10016000B90A0008B90A0008B90A0008B90A000863
:10017000B90A0008B90A0008B90A0008B90A000853
:10018000B90A0008B90A000880B584B000AFF86069
:10019000B960FA71BB71FB68B86819464FF000028C
:1001A000124B01F009FB0346002B01D0012318E09C
:1001B000F968FA79BB79084611461A4601F0A4FBA2
:1001C0000346002B01D001230BE0FB68BA689A625A
:1001D000FB68FA7983F82C20FB68BA7983F82D2024
:1001E000002318461037BD4680BD00BF00004940BF
:1001F00080B584B000AF7860396038684FF0000196
:1002000004F0EAFD0346002B06D13868184904F0D3
:1002100001FE0346002B01D0012324E03868154974
:1002200004F03CFC03461846114904F0EBFC03467D
:100230001846104904F02AFB0346184604F0F4FD62
:100240000346FB817B68FA899A867B683A681A6361
:1002500079687B6893F82C20FB89084611461A467A
:1002600001F0E8FC002318461037BD4680BD00BFF2
:100270000000344300007A4480B58AB000AF786053
:10028000396000237B6200233B620023FB61002373
:10029000BB617B681B8A9BB27B627B6A23F4405301
:1002A0007B623B68DB887A6A13437B627B6A9AB223
:1002B0007B681A827B689B899BB27B627B6A23F492
:1002C000B05323F00C037B623B689A883B681B8920
:1002D00013439AB23B685B8913439BB27A6A134318
:1002E0007B627B6A9AB27B689A817B689B8A9BB2AD
:1002F0007B627B6A23F440737B623B689B897A6AEA
:1003000013437B627B6A9AB27B689A8207F1080387
:10031000184600F07BFD7A68314B9A4203D07A6828
:10032000304B9A4202D17B693B6201E03B693B6200
:100330007B689B899BB29BB21BB2002B0CDA3A6A9A
:1003400013469B0013449A001A443B681B685B00E9
:10035000B2FBF3F3FB610BE03A6A13469B001344D4
:100360009A001A443B681B689B00B2FBF3F3FB61E5
:10037000FA691D4BA3FB02135B091B017B627B6ABD
:100380001B09642202FB03F3FA69D31ABB617B6881
:100390009B899BB29BB21BB2002B0DDABB69DB00C1
:1003A00003F13202104BA3FB02135B0903F00703B6
:1003B0007A6A13437B620CE0BB691B0103F13202D2
:1003C000094BA3FB02135B0903F00F037A6A134383
:1003D0007B627B6A9AB27B681A812837BD4680BDF2
:1003E00000100140001401401F85EB5180B483B020
:1003F00000AF78600B46FB70FB78002B08D07B6861
:100400009B899BB243F400539AB27B689A8107E0C0
:100410007B689B899BB223F400539AB27B689A81D4
:100420000C37BD465DF8047B704700BF80B483B0D5
:1004300000AF78600B46FB70FB78002B0AD07B681E
:100440009B899BB26FEA43436FEA53439AB27B683E
:100450009A8107E07B689B899BB2C3F30E039AB233
:100460007B689A810C37BD465DF8047B704700BFFE
:1004700080B483B000AF78607B689B889BB2C3F385
:1004800008039BB218460C37BD465DF8047B7047E5
:1004900080B487B000AF786013460A467A807B70DC
:1004A00000233B610023FB600023BB6000237B61D2
:1004B0007B687B617B88DBB25B09DBB23B617B885D
:1004C00003F01F03FB60FB68012202FA03F3BB6029
:1004D0003B69012B03D17B690C337B6109E03B69EC
:1004E000022B03D17B6910337B6102E07B691433FB
:1004F0007B617B78002B06D07B697A691168BA68CA
:100500000A431A6006E07B697A691168BA68D243C7
:100510000A401A601C37BD465DF8047B704700BF77
:1005200080B487B000AF78600B467B800023FB600F
:1005300000237B610023BB600023FB747B88DBB25C
:100540005B09DBB2BB607B8803F01F037B617B69C7
:10055000012202FA03F37B61BB68012B06D17B68A1
:100560009B899BB27A6913407B610FE0BB68022BC9
:1005700006D17B681B8A9BB27A6913407B6105E0D8
:100580007B689B8A9BB27A6913407B617B881B0ADC
:100590009BB2FB60FB68012202FA03F3FB607B68FD
:1005A0001B889BB2FA681340FB607B69002B05D067
:1005B000FB68002B02D00123FB7401E00023FB74D5
:1005C000FB7C18461C37BD465DF8047B704700BFB6
:1005D00090B589B000AF0023FB774BE1FA7FA949C2
:1005E0001346DB009B1ADB000B4420331B681846C4
:1005F000012100F0B5FCFA7FA2491346DB009B1AEB
:10060000DB000B4430331B681846012100F0A8FCC6
:10061000FA7F9C491346DB009B1ADB000B4408332E
:100620005A68994B9A420BD0FA7F96491346DB00E1
:100630009B1ADB000B4408335A68944B9A420CD146
:10064000FA7F90491346DB009B1ADB000B445B6882
:100650001846012100F0C0FC0BE0FA7F89491346DF
:10066000DB009B1ADB000B445B681846012100F09D
:1006700095FCFA7F83491346DB009B1ADB000B4491
:1006800018331868FA7F7F491346DB009B1ADB009A
:100690000B4420331B791946FA7F7A4C1346DB0052
:1006A0009B1ADB00234408331B781A4600F0FAFF3C
:1006B000FA7F74491346DB009B1ADB000B44283396
:1006C0001868FA7F6F491346DB009B1ADB000B4466
:1006D00030331B791946FA7F6A4C1346DB009B1AAC
:1006E000DB00234408331B781A4600F0DBFF0223AB
:1006F0003B7603237B760023BB760123FB76FA7FD0
:1007000060491346DB009B1ADB000B4418339B88BF
:100710007B61FA7F5B491346DB009B1ADB000B44CD
:1007200018331A6807F114031046194600F02CFF1D
:10073000FA7F54491346DB009B1ADB000B44283335
:100740009B887B61FA7F4F491346DB009B1ADB00D5
:100750000B4428331A6807F114031046194600F0B9
:1007600013FFFA7F47491346DB009B1ADB000B445B
:1007700008335B6818460121FFF758FEFA7F4149AC
:100780001346DB009B1ADB000B4410331B687B60B5
:1007900000233B8100237B810023BB8100233B821C
:1007A0000C23FB81FA7F37491346DB009B1ADB00E1
:1007B0000B4408335A683B1D10461946FFF75CFD91
:1007C000FA7F30491346DB009B1ADB000B440833E9
:1007D0005B6818460121FFF709FEFA7F2949134695
:1007E000DB009B1ADB000B4408335B68184640F2C1
:1007F00025510122FFF74CFEFA7F22491346DB0008
:100800009B1ADB000B4410331B793B7000237B7079
:100810000023BB700123FB703B46184602F082FAAE
:10082000FA7F1B491346DB009B1ADB000B440D22A9
:100830001A70FA7F16491346DB009B1ADB000B4443
:10084000303300225A80FA7F11491346DB009B1A8D
:10085000DB000B44303300229A80FA7F0C491346A8
:10086000DB009B1ADB000B44303300229A71FB7FC4
:100870000133FB77FB7F002B3FF4B0AE2437BD463E
:1008800090BD00BF00000020001001400014014096
:10089000A001002090B484B000AF02460B46FA716C
:1008A000BB80FA7924491346DB009B1ADB000B441A
:1008B00030335B88FB81FA79FC89BB88D9B21E484A
:1008C0001346DB009B1ADB00234403440A461A70DC
:1008D000FB890133FB81FB89312B01D90023FB818B
:1008E000FA7915491346DB009B1ADB000B443033C1
:1008F000FA895A80FA7910491346DB009B1ADB000B
:100900000B4430335988FA790B481346DB009B1AA5
:10091000DB00034430339B88994209D1FA790649B8
:100920001346DB009B1ADB000B44303302229A7122
:100930001037BD4690BC7047A001002080B584B040
:1009400000AF02460B46FA71BB800023FB7315E033
:10095000FA7B0D491346DB009B1ADB000B44103376
:100960001B79FA799A4206D1FA7BBB881046194660
:10097000FFF790FF05E0FB7B0133FB73FB7B002B54
:10098000E6D01037BD4680BD0000002080B582B0A3
:1009900000AF0A4840F22551FFF7C2FD0346012B84
:1009A00009D10648FFF764FD0346FB80FB8827203A
:1009B0001946FFF7C3FF0837BD4680BD0048004019
:1009C00080B582B000AF0A4840F22551FFF7A8FD7C
:1009D0000346012B09D10648FFF74AFD0346FB8079
:1009E000FB8834201946FFF7A9FF0837BD4680BDB4
:1009F000004C004080B582B000AF0A4840F225515B
:100A0000FFF78EFD0346012B09D10648FFF730FDA5
:100A10000346FB80FB8835201946FFF78FFF083718
:100A2000BD4680BD0050004080B582B000AF0A488E
:100A300040F22551FFF774FD0346012B09D106480A
:100A4000FFF716FD0346FB80FB8847201946FFF79A
:100A500075FF0837BD4680BD0014014080B582B0E7
:100A600000AF104B7B60104B3B6007E03B681A1DEA
:100A70003A607A68111D796012681A603A680B4B07
:100A80009A42F3D30A480B494FF000028842B8BF9C
:100A900040F8042BFFF6FAAF00F040F80837BD46E7
:100AA00080BD00BF8C4E00080000002038010020EF
:100AB000380100203402002080B400AFFEE700BF00
:100AC00080B485B000AF7860104B1A687B6802FB79
:100AD00003F3FB600E4B1A680E4B9A4204D00C4B8A
:100AE0001A680D4B9A4205D1084B1B68FA68D31A55
:100AF000FB60FFE700BFFB685A1EFA60002BFAD1CB
:100B00001437BD465DF8047B704700BF30020020FB
:100B1000600000200095BA0A00E1F505B0B596B076
:100B200000AF00233B6507F1380300221A6004334D
:100B300000221A60043300221A60043300221A6073
:100B4000043300221A6004337B4A07F1280392E839
:100B5000030083E8030000233B6300237B6307F16A
:100B6000140300221A60043300221A6004330022A6
:100B70001A60043300221A60043300221A6004331E
:100B80006E4B3C461D460FCD0FC42B6823606C4B4B
:100B9000FB6400F0E7F86B486B49FFF729FB4FF463
:100BA0007A70FFF78DFFE02000F0C2FDE02000F03A
:100BB000CDFD03463B6507F114036448194600F078
:100BC000EFF83A6D41F288339A4204DD5D48F96CE2
:100BD000FFF70EFB90E05E4B1B68002B16DD002339
:100BE0007B6510E07B6D9B0007F158010B4453F8C7
:100BF000442C7B6D9B0007F158010B4443F8202CDB
:100C00007B6D01337B657B6D042BEBDDFB69012B79
:100C100003D1BA684F4B1A606EE0BB69012B03D158
:100C20007A684C4B1A6067E03B6A012B03D1FA6883
:100C3000484B1A6060E07B69012B03D13A68454B51
:100C40001A6059E07B6A012B03D13A69414B1A6063
:100C500052E03B6C012B10D1BA68FB681046194674
:100C600003F014FE034618464FF0804103F0CAFF1C
:100C700003461A46374B1A603EE0FB6B012B10D13E
:100C80007A68BB681046194603F000FE0346184612
:100C90004FF0804103F0B6FF03461A462D4B1A6011
:100CA0002AE0BB6B012B10D13A687B6810461946CD
:100CB00003F0ECFD034618464FF0804103F0A2FF1D
:100CC00003461A46234B1A6016E07B6C012B10D1A9
:100CD000FA683B691046194603F0D8FD03461846EA
:100CE0004FF0804103F08EFF03461A46194B1A60FD
:100CF00002E0184B144A1A60164B1B681846164936
:100D000004F088F80346002B02D0124B124A1A60F6
:100D1000104B1B681846114904F05EF80346002B7F
:100D200002D00C4B0E4A1A600A4B1B680548194644
:100D3000FFF75EFA37E700BF684E0008784E0008FC
:100D400000003443F80100200000B44244010020B8
:100D50005801002038000020000020430000A0417E
:100D60000000A0C180B500AF03F076F802F038F8BB
:100D700000F0C6FBFFF72CFC0548064902220123C0
:100D8000FFF702FA04480549062200F0DFFB80BDA8
:100D9000F801002000080040E401002000000240AB
:100DA00090B585B000AF786039600023FB6025E026
:100DB000FB689B007A68D418FB68DBB2184603F026
:100DC00053F803462360FB689B007A6813441A6853
:100DD0000D4BF96853F821309A4206DDFB689B0001
:100DE0003A68134401221A6005E0FB689B003A68E8
:100DF000134400221A60FB680133FB60FB68042B7C
:100E0000D6DD1437BD4690BD3C00002080B489B0CB
:100E100000AF78600023BB6100237B610023FB618E
:100E200002233B610023FB600223BB60484B9B68AD
:100E300003F00C03BB61BB69042B07D0082B09D05E
:100E4000002B3FD17B68434A1A603FE07B68424AEF
:100E50001A603BE03E4B5B6803F480039B0DFB6034
:100E60003B4B5B6803F03F03BB60FB68002B0DD07E
:100E7000394ABB68B2FBF3F2354B596847F6C07389
:100E80000B409B0903FB02F3FB610CE0314ABB689A
:100E9000B2FBF3F22E4B596847F6C0730B409B0927
:100EA00003FB02F3FB612A4B5B6803F440331B0C2A
:100EB00001335B003B61FA693B69B2FBF3F27B688B
:100EC0001A6003E07B68234A1A6000BF204B9B68CE
:100ED00003F0F003BB61BB691B09BB611F4ABB691F
:100EE00013441B78DBB27B617B681A687B69DA404C
:100EF0007B685A60164B9B6803F4E053BB61BB6987
:100F00009B0ABB61154ABB6913441B78DBB27B614A
:100F10007B685A687B69DA407B689A600C4B9B68F7
:100F200003F46043BB61BB695B0BBB610B4ABB69EC
:100F300013441B78DBB27B617B685A687B69DA40BB
:100F40007B68DA602437BD465DF8047B704700BFDC
:100F5000003802400024F40000127A005000002003
:100F600080B483B000AF78600B46FB70FB78002B39
:100F700006D0094B084A116B7A680A431A6306E0E7
:100F8000054B054A116B7A68D2430A401A630C3745
:100F9000BD465DF8047B70470038024080B483B0E2
:100FA00000AF78600B46FB70FB78002B06D0094B36
:100FB000084A116C7A680A431A6406E0054B054A30
:100FC000116C7A68D2430A401A640C37BD465DF84A
:100FD000047B70470038024080B483B000AF786073
:100FE0000B46FB70FB78002B06D0094B084A516C6E
:100FF0007A680A435A6406E0054B054A516C7A68E0
:10100000D2430A405A640C37BD465DF8047B7047F2
:101010000038024080B483B000AF78600B46FB70AC
:10102000FB78002B06D0094B084A116A7A680A43FC
:101030001A6206E0054B054A116A7A68D2430A40F3
:101040001A620C37BD465DF8047B704700380240D9
:1010500080B485B000AF786039600023FB60002366
:10106000FB727B685B68FB60FB6823F0407323F4D2
:101070008073FB603B681B791A023B681B68134353
:10108000FA681343FB607B68FA685A607B689B6868
:10109000FB60FA68174B1340FB603B681A693B68BA
:1010A000DB681A433B689B681A433B685B795B00CB
:1010B0001343FA681343FB607B68FA689A607B68A5
:1010C000DB6AFB60FB6823F47003FB603B681B7DFD
:1010D000013BDAB2FB7A1343FB72FB7A1B05FA6819
:1010E0001343FB607B68FA68DA621437BD465DF82B
:1010F000047B7047FDF7FFC080B485B000AF786017
:101100000023FB600E4B5B68FB60FA680D4B1340DD
:10111000FB607B681A687B685B681A437B689B6826
:101120001A437B68DB681343FA681343FB60044B84
:10113000FA685A601437BD465DF8047B704700BFFB
:1011400000230140E030FCFF80B483B000AF786042
:101150000B46FB70FB78002B06D07B689B6843F046
:1011600001027B689A6005E07B689B6823F00102BE
:101170007B689A600C37BD465DF8047B704700BF02
:1011800080B485B000AF7860F970BA707B700023CE
:10119000FB600023BB60FB78092B23D97B68DB68ED
:1011A000FB60FB78A3F10A0213465B00134407229D
:1011B00002FA03F3BB60BB68DB43FA681340FB60D1
:1011C0007978FB78A3F10A0213465B00134401FA15
:1011D00003F3BB60FA68BB681343FB607B68FA6883
:1011E000DA601EE07B681B69FB60FA7813465B00DF
:1011F0001344072202FA03F3BB60BB68DB43FA68BF
:101200001340FB607978FA7813465B00134401FAC7
:1012100003F3BB60FA68BB681343FB607B68FA6842
:101220001A61BB78062B21D87B685B6BFB60BB78AF
:101230005A1E13469B0013441F2202FA03F3BB609D
:10124000BB68DB43FA681340FB60F978BB785A1E31
:1012500013469B00134401FA03F3BB60FA68BB68B2
:101260001343FB607B68FA685A6347E0BB780C2B3A
:1012700021D87B681B6BFB60BB78DA1F13469B0091
:1012800013441F2202FA03F3BB60BB68DB43FA6816
:101290001340FB60F978BB78DA1F13469B001344B8
:1012A00001FA03F3BB60FA68BB681343FB607B6819
:1012B000FA681A6322E07B68DB6AFB60BB78A3F103
:1012C0000D0213469B0013441F2202FA03F3BB6076
:1012D000BB68DB43FA681340FB60F978BB78A3F185
:1012E0000D0213469B00134401FA03F3BB60FA6836
:1012F000BB681343FB607B68FA68DA621437BD464B
:101300005DF8047B704700BF80B483B000AF7860A5
:101310007B689B6843F080427B689A600C37BD46CF
:101320005DF8047B704700BF80B483B000AF786085
:101330007B68DB6C9BB218460C37BD465DF8047BBE
:10134000704700BF80B485B000AF78600B46FB707B
:101350000023FB737B681A68FB781340002B02D0D4
:101360000123FB7301E00023FB73FB7B184614375A
:10137000BD465DF8047B704780B483B000AF034680
:101380003960FB7197F90730002B0BDA0D49FB79B7
:1013900003F00F03043B3A68D2B21201D2B20B44FD
:1013A0001A7609E0084997F907303A68D2B2120173
:1013B000D2B20B4483F800230C37BD465DF8047BA2
:1013C000704700BF00ED00E000E100E080B582B0B2
:1013D00000AF78607B68B3F1807F01D3012311E017
:1013E0000A4B7A6822F07F42013A5A604FF0FF3090
:1013F0000F21FFF7C1FF054B00229A60034B072224
:101400001A60002318460837BD4680BD10E000E092
:1014100080B582B000AF374B1B685A1C354B1A6041
:10142000354B1B68002B04D0334B1B685A1E324BC4
:101430001A60AFF300800023FB7152E0FB792F4A62
:101440009B0013445B68002B48D0FB792B4A9B0020
:1014500013445B681B7B002B40D0FB79274A9B0021
:1014600013445B689B68002B38D0FB79234A9B00B0
:1014700013445B689A68013A9A60FB791F4A9B00A3
:1014800013445B689B68002B28D1FB791B4A9B00A7
:1014900013445B681A69FB7918499B000B445B682D
:1014A0005B6918469047FB79144A9B0013445A68BD
:1014B000FB7912499B000B445B681B689360FB79C6
:1014C0000E4A9B0013445B685B68002B06D1FB79D6
:1014D0000A4A9B0013445B6800221A73FB790133AC
:1014E000FB71064B1B78FA799A42A7D30837BD46A1
:1014F00080BD00BF60010020640100206C0100205D
:1015000080B500AF0C4B1A680C4BA3FB02139B0970
:101510001846FFF75BFF0346002B00D0FEE7064BA3
:101520001B689A09064BA3FB02139A0A054B1A6023
:10153000054B01221A7080BD60000020D34D62105F
:1015400017916502300200206801002080B586B046
:1015500002AFF860B9601346FB80FFF7D1FFFB884C
:101560000122009201220192B8681946012200234B
:1015700001F08AFEFB68BA681A60FB68FA889A80F4
:101580001037BD4680BD00BF80B487B000AF786023
:10159000396000237B6100233B610023FB60002353
:1015A0007B6176E07B69012202FA03F33B613B68D1
:1015B0001A683B691340FB60FA683B699A4265D13F
:1015C0007B681A687B695B00032101FA03F3DB4344
:1015D0001A407B681A607B681A683B681B79194659
:1015E0007B695B0001FA03F31A437B681A603B686E
:1015F0001B79012B03D03B681B79022B2ED17B6812
:101600009A687B695B00032101FA03F3DB431A400C
:101610007B689A607B689A683B685B7919467B694E
:101620005B0001FA03F31A437B689A607B685A688F
:101630007B699BB2012101FA03F3DB431A407B680B
:101640005A607B685A683B689B7919467B699BB2F4
:1016500001FA03F39BB21A437B685A607B68DA682D
:101660007B699BB25B00032101FA03F3DB431A4061
:101670007B68DA607B68DA683B68DB7919467B69EE
:101680005B0001FA03F31A437B68DA607B6901337C
:101690007B617B690F2B85D91C37BD465DF8047BC8
:1016A000704700BF80B485B000AF786013460A462B
:1016B0007A807B700023FB600023BB607A787B8894
:1016C00003F007039B0002FA03F3FB607B88DB084F
:1016D0009BB21A467B88DB089BB219467B680831AF
:1016E00053F821107B8803F007039B000F2000FABA
:1016F00003F3DB4319407B68083243F822107B88F0
:10170000DB089BB21A467B68083253F82220FB683C
:101710001343BB607B88DB089BB21A467B680832A8
:10172000B96843F822101437BD465DF8047B704752
:1017300080B582B000AF0346FB71FB7918460021EB
:10174000512201F0A5FC0837BD4680BD80B588B0A8
:1017500000AF0346FB71FB791846002101F09CFBAA
:101760000346FB83FB8BFF2BF5D00023FB83FB7928
:101770001846022101F090FB03469BB21B02FB833B
:10178000FB791846032101F087FB03469AB2FB8BD5
:101790001344FB83074B1B88FA8B9A4202D2FB8BC4
:1017A000002B02D1034B1B88FB83FB8B1846203791
:1017B000BD4680BD7400002080B58EB000AFF860DB
:1017C000B960C7E90023FA684B4B9A4203D0FA6824
:1017D0004A4B9A4201D1042384E0BB68FA681A603C
:1017E00007F11403F868194601F05CFE7B6918469E
:1017F00002F016FD02460B4610461946D7E90023B3
:1018000002F0F6FF0346002B01D001236AE0D7E97E
:1018100000014FF000024FF0000302F0DFFF03462B
:10182000002B01D002235DE007F114031846D7E92D
:10183000002301F0B7FE3B6A002B01D1012351E0E8
:10184000D7E9000102F0FCFF0246BB68DA6028A17C
:10185000D1E90001D7E9002302F082FE02460B46DF
:101860001046194602F0ECFF0246BB681A613A6A5C
:10187000BB685A607A6ABB689A60F86801F026FF14
:101880007B6A9BB2013B9BB2BB850023FB853B6A15
:10189000013B3B630023BB86002387F8363007F10A
:1018A0002C03F868194601F0C5FFF868012102F021
:1018B0002BF8FA68124B9A4203D0FA68114B9A42FD
:1018C00003D1F868012102F0A1FAFB681B889BB2E2
:1018D00043F001039AB2FB681A80BB68002283F8C8
:1018E0002420002318463837BD4680BDAFF3008062
:1018F0000000000080842E410010004000140040D1
:10190000000001400004014080B582B000AF786063
:1019100013460A46FA70BB707B681A684F4B9A42AE
:1019200007D1FA78BB781046194600F0A7F90346AC
:101930008FE07B681B68B3F1804F07D1FA78BB78E2
:101940001046194600F056FA034682E07B681A6892
:10195000434B9A4207D1FA78BB781046194600F0FB
:101960000FFB034675E07B681A683E4B9A4207D12D
:10197000FA78BB781046194600F0D8FB034668E0B9
:101980007B681A68384B9A4207D1FA78BB781046C0
:10199000194600F085FC03465BE07B681A68334B10
:1019A0009A4207D1FA78BB781046194600F032FD0A
:1019B00003464EE07B681A682D4B9A4207D1FA78AD
:1019C000BB781046194600F0DDFD034641E07B6818
:1019D0001A68284B9A4207D1FA78BB781046194604
:1019E00000F034FE034634E07B681A68224B9A42CA
:1019F00007D1FA78BB781046194600F065FE034619
:101A000027E07B681A681D4B9A4207D1FA78BB78A9
:101A10001046194600F096FE03461AE07B681A68E5
:101A2000174B9A4207D1FA78BB781046194600F056
:101A3000EFFE03460DE07B681A68124B9A4207D10D
:101A4000FA78BB781046194600F020FF034600E004
:101A5000042318460837BD4680BD00BF0000014082
:101A60000004004000080040000C00400004014059
:101A7000004001400044014000480140001800407F
:101A8000001C00400020004080B58AB000AFF86024
:101A90000B467A60FB72FB7A87F82730FB685A683E
:101AA0007B689A4201D80323C0E07B68BB61702346
:101AB0003B8201237B820223BB8397F82730FA689D
:101AC00004339B0013447A685A6097F82730012248
:101AD00002FA03F387F82730FB7A032B00F2A48085
:101AE00001A252F823F000BFF91A0008451B0008B4
:101AF000911B0008DD1B0008FB6893F8242097F871
:101B000027301340DBB2002B17D1FB6893F8242059
:101B100097F827301343DAB2FB6883F82420FB6878
:101B20001A6807F110031046194601F00DFFFB6813
:101B30001B681846082102F0F5F8FB681B687A68F4
:101B40005A6372E0FB6893F8242097F8273013401B
:101B5000DBB2002B17D1FB6893F8242097F82730CD
:101B60001343DAB2FB6883F82420FB681A6807F194
:101B700010031046194601F061FFFB681B68184608
:101B8000082102F0EBF8FB681B687A689A634CE066
:101B9000FB6893F8242097F827301340DBB2002B22
:101BA00017D1FB6893F8242097F827301343DAB253
:101BB000FB6883F82420FB681A6807F110031046BD
:101BC000194601F0C3FFFB681B681846082102F0A4
:101BD000E3F8FB681B687A68DA6326E0FB6893F831
:101BE000242097F827301340DBB2002B17D1FB6875
:101BF00093F8242097F827301343DAB2FB6883F870
:101C00002420FB681A6807F110031046194602F0F9
:101C100023F8FB681B681846082102F0D9F8FB6816
:101C20001B687A681A6400E000BF00231846283752
:101C3000BD4680BD80B584B000AFF8600B467A60C9
:101C4000FB72FB681A697B689A4201D2032310E099
:101C5000FB685B68013B7A6802FB03F2FB681B6967
:101C6000B2FBF3F3FA7AF86811461A46FFF70CFF55
:101C7000034618461037BD4680BD00BF80B586B00C
:101C800002AF02460B46FA71BB710623FB73FB7968
:101C9000032B00F2A38001A252F823F0AD1C000830
:101CA000F91C0008451D0008911D0008BB79002B98
:101CB00002D0012B0ED01BE00323009301230193DC
:101CC0004A484FF480710022002301F0F9FA002302
:101CD000FB7310E0032300930123019344484FF466
:101CE00000710022002301F0EBFA0023FB7302E0F5
:101CF0000623FB7300BF74E0BB79002B02D0012BDD
:101D00000ED01BE0032300930123019337484FF4C7
:101D100000710022002301F0D3FA0023FB7310E0CE
:101D2000032300930123019331484FF48061002283
:101D3000002301F0C5FA0023FB7302E00623FB73C6
:101D400000BF4EE0BB79002B02D0012B0ED01BE070
:101D5000032300930123019324484FF48061002260
:101D6000002301F0ADFA0023FB7310E0032300937E
:101D7000012301931E484FF400510022002301F07B
:101D80009FFA0023FB7302E00623FB7300BF28E0E9
:101D9000BB79002B02D0012B0ED01BE00323009354
:101DA0000123019311484FF400610022002301F048
:101DB00087FA0023FB7310E00323009301230193B0
:101DC0000B484FF480410022002301F079FA0023F0
:101DD000FB7302E00623FB7300BF02E00523FB73E5
:101DE00000BFFB7B18461037BD4680BD0000024097
:101DF0000010024080B586B002AF02460B46FA7171
:101E0000BB710623FB73FB79032B00F2AC8001A2AC
:101E100052F823F0251E00088B1E0008D31E000870
:101E20001D1F0008BB79012B10D0022B1BD0002BEB
:101E300027D103230093012301934F48012100225E
:101E4000002301F03DFA0023FB731DE00323009300
:101E500001230193484820210022002301F030FA99
:101E60000023FB7310E003230093012301934248F6
:101E70004FF400410022002301F022FA0023FB73FB
:101E800002E00623FB7300BF70E0BB79002B02D099
:101E9000012B0DD019E00323009301230193364851
:101EA00002210022002301F00BFA0023FB730FE054
:101EB00003230093012301933048082100220023CB
:101EC00001F0FEF90023FB7302E00623FB7300BF61
:101ED0004CE0BB79002B02D0012B0DD01AE003237C
:101EE000009301230193244804210022002301F0E0
:101EF000E7F90023FB7310E0032300930123019310
:101F00001E484FF480610022002301F0D9F900231C
:101F1000FB7302E00623FB7300BF27E0BB79002BB5
:101F200002D0012B0DD01AE003230093012301936B
:101F3000114808210022002301F0C2F90023FB739D
:101F400010E003230093012301930C484FF4006138
:101F50000022002301F0B4F90023FB7302E0062302
:101F6000FB7300BF02E00523FB7300BFFB7B184639
:101F70001037BD4680BD00BF000002400004024093
:101F800080B586B002AF02460B46FA71BB710623DC
:101F9000FB73FB79032B00F2BA8001A252F823F005
:101FA000B11F0008172000087B200008C52000088A
:101FB000BB79012B10D0022B1BD0002B27D1032380
:101FC000009302230193564840210022002301F090
:101FD00077F90023FB731DE0032300930223019391
:101FE000504810210022002301F06AF90023FB73FE
:101FF00010E003230093022301934B484FF48061C8
:102000000022002301F05CF90023FB7302E00623A9
:10201000FB7300BF7EE0BB79012B10D0022B1BD0DD
:10202000002B26D103230093022301933C488021F7
:102030000022002301F044F90023FB731CE003237A
:10204000009302230193374820210022002301F04E
:1020500037F90023FB730FE003230093022301935E
:10206000314880210022002301F02AF90023FB736C
:1020700002E00623FB7300BF4CE0BB79002B02D0CB
:10208000012B0DD01AE0032300930223019325486E
:1020900001210022002301F013F90023FB7310E05B
:1020A00003230093022301931F484FF48071002201
:1020B000002301F005F90023FB7302E00623FB7304
:1020C00000BF27E0BB79002B02D0012B0DD01AE016
:1020D00003230093022301931248022100220023CC
:1020E00001F0EEF80023FB7310E0032300930223BA
:1020F00001930D484FF400710022002301F0E0F835
:102100000023FB7302E00623FB7300BF02E00523FC
:10211000FB7300BFFB7B18461037BD4680BD00BF78
:1021200000000240000402400008024080B586B072
:1021300002AF02460B46FA71BB710623FB73FB79B3
:10214000032B00F2A18001A252F823F05D210008C8
:10215000A7210008F12100083D220008BB79002BCF
:1021600002D0012B0DD01AE0032300930223019328
:10217000494840210022002301F0A2F80023FB730C
:1021800010E0032300930223019344484FF480514D
:102190000022002301F094F80023FB7302E00623E1
:1021A000FB7300BF73E0BB79002B02D0012B0DD075
:1021B0001AE0032300930223019337488021002271
:1021C000002301F07DF80023FB7310E0032300934C
:1021D0000223019331484FF400510022002301F003
:1021E0006FF80023FB7302E00623FB7300BF4EE091
:1021F000BB79002B02D0012B0ED01BE003230093F0
:102200000223019324484FF480710022002301F03F
:1022100057F80023FB7310E003230093022301937C
:102220001E484FF480410022002301F049F80023AA
:10223000FB7302E00623FB7300BF28E0BB79002B91
:1022400002D0012B0ED01BE0032300930223019345
:1022500011484FF400710022002301F031F80023EF
:10226000FB7310E003230093022301930B484FF408
:1022700000410022002301F023F80023FB7302E059
:102280000623FB7300BF02E00523FB7300BFFB7B4B
:1022900018461037BD4680BD00040240000C0240C5
:1022A00080B586B002AF02460B46FA71BB710623B9
:1022B000FB73FB79032B00F29E8001A252F823F0FE
:1022C000D12200081B23000865230008AF23000863
:1022D000BB79002B02D0012B0DD01AE00323009311
:1022E00002230193484801210022002300F0E8FF67
:1022F0000023FB7310E00323009302230193434860
:102300004FF480610022002300F0DAFF0023FB730A
:1023100002E00623FB7300BF70E0BB79002B02D004
:10232000012B0DD01AE003230093022301933648BA
:1023300002210022002300F0C3FF0023FB7310E002
:10234000032300930223019330484FF400610022DD
:10235000002300F0B5FF0023FB7302E00623FB73AC
:1023600000BF4BE0BB79002B02D0012B0DD01AE04F
:102370000323009302230193234804210022002316
:1023800000F09EFF0023FB7310E003230093022361
:1023900001931E484FF480510022002300F090FF6B
:1023A0000023FB7302E00623FB7300BF26E0BB792A
:1023B000002B02D0012B0DD019E003230093022340
:1023C0000193114808210022002300F079FF002327
:1023D000FB730FE003230093022301930C480121B8
:1023E0000022002300F06CFF0023FB7302E00623B1
:1023F000FB7300BF02E00523FB7300BFFB7B1846A5
:102400001037BD4680BD00BF00000240001C0240E6
:102410000020024080B586B002AF02460B46FA713A
:10242000BB710623FB73FB79032B00F29E8001A294
:1024300052F823F0452400088D240008D524000814
:102440001F250008BB79002B02D0012B0DD019E00D
:1024500003230093032301934848402100220023D3
:1024600000F02EFF0023FB730FE0032300930323F0
:102470000193434820210022002300F021FF002384
:10248000FB7302E00623FB7300BF71E0BB79002BF6
:1024900002D0012B0DD019E00323009303230193F5
:1024A000364880210022002300F00AFF0023FB733E
:1024B0000FE00323009303230193314840210022BE
:1024C000002300F0FDFE0023FB7302E00623FB73F4
:1024D00000BF4DE0BB79002B02D0012B0ED01AE0DB
:1024E000032300930323019324484FF480710022B7
:1024F000002300F0E5FE0023FB730FE003230093AD
:10250000032301931E4880210022002300F0D8FEFF
:102510000023FB7302E00623FB7300BF28E0BB79B6
:10252000002B02D0012B0ED01BE0032300930323CA
:10253000019312484FF400710022002300F0C0FE06
:102540000023FB7310E003230093032301930C4843
:102550004FF480710022002300F0B2FE0023FB73D1
:1025600002E00623FB7300BF02E00523FB7300BFFC
:10257000FB7B18461037BD4680BD00BF00080240F7
:102580000020024080B586B002AF02460B46FA71C9
:10259000BB710623FB73FB79002B02D0012B24D0E7
:1025A00047E0BB79002B02D0012B0DD019E00323AB
:1025B000009303230193234804210022002300F009
:1025C0007FFE0023FB730FE003230093032301939B
:1025D0001D4820210022002300F072FE0023FB731F
:1025E00002E00623FB7300BF26E0BB79002B02D07C
:1025F000012B0DD019E0032300930323019311480D
:1026000008210022002300F05BFE0023FB730FE093
:1026100003230093032301930B484021002200234E
:1026200000F04EFE0023FB7302E00623FB7300BFA5
:1026300002E00523FB7300BFFB7B18461037BD4645
:1026400080BD00BF000002400010024080B586B08F
:1026500002AF02460B46FA71BB710623FB73FB798E
:10266000002B24D1BB79002B02D0012B0ED01AE015
:10267000032300930323019311484FF48071002238
:10268000002300F01DFE0023FB730FE003230093E3
:10269000032301930B4840210022002300F010FE89
:1026A0000023FB7302E00623FB7300BF02E0052357
:1026B000FB7300BFFB7B18461037BD4680BD00BFD3
:1026C000000402400014024080B586B002AF02460A
:1026D0000B46FA71BB710623FB73FB79002B24D1E7
:1026E000BB79002B02D0012B0ED01AE003230093FC
:1026F0000323019311484FF400710022002300F0DE
:10270000DFFD0023FB730FE00323009303230193FA
:102710000B4880210022002300F0D2FD0023FB7330
:1027200002E00623FB7300BF02E00523FB7300BF3A
:10273000FB7B18461037BD4680BD00BF0004024039
:102740000014024080B586B002AF02460B46FA7113
:10275000BB710623FB73FB79002B02D0012B25D024
:102760004AE0BB79002B02D0012B0ED01AE00323E4
:1027700000930923019324484FF480410022002351
:1027800000F09EFD0023FB730FE003230093092359
:1027900001931E4840210022002300F091FD0023F8
:1027A000FB7302E00623FB7300BF28E0BB79002B1C
:1027B00002D0012B0ED01BE00323009309230193C9
:1027C00011484FF400410022002300F079FD00235E
:1027D000FB7310E003230093092301930B484FF48C
:1027E00000710022002300F06BFD0023FB7302E068
:1027F0000623FB7300BF02E00523FB7300BFFB7BD6
:1028000018461037BD4680BD00040240001C02403F
:1028100080B586B002AF02460B46FA71BB71062343
:10282000FB73FB79002B24D1BB79002B02D0012B49
:102830000DD01AE0032300930923019311480221CC
:102840000022002300F03CFD0023FB7310E0032373
:102850000093092301930C484FF480710022002358
:1028600000F02EFD0023FB7302E00623FB7300BF84
:1028700002E00523FB7300BFFB7B18461037BD4603
:1028800080BD00BF000002400014024080B586B049
:1028900002AF02460B46FA71BB710623FB73FB794C
:1028A000002B24D1BB79002B02D0012B0DD01AE0D4
:1028B0000323009309230193114880210022002360
:1028C00000F0FEFC0023FB7310E0032300930923B8
:1028D00001930C484FF400710022002300F0F0FC3B
:1028E0000023FB7302E00623FB7300BF02E0052315
:1028F000FB7300BFFB7B18461037BD4680BD00BF91
:10290000000002400014024080B582B000AF786041
:102910007A68174B9A420AD14FF400100121FEF752
:1029200079FB4FF400100021FEF774FB1CE07A687D
:10293000104B9A420AD14FF480000121FEF76AFB46
:102940004FF480000021FEF765FB0DE07A680A4B2A
:102950009A4209D14FF400000121FEF75BFB4FF4CE
:1029600000000021FEF756FB0837BD4680BD00BFC2
:102970000054004000580040005C004080B58AB020
:1029800000AF786039600023FB8400237B8404233C
:10299000BB84574BFB617B689B88FB84FB8C23F0DB
:1029A0003F03FB8407F10C031846FEF72FFA7B69FF
:1029B000FB61FA694F4BA3FB02139B0C7B84FA8CDF
:1029C0007B8C1343FB847B68FA8C9A807B681B8822
:1029D0009BB223F001039AB27B681A800023FB8428
:1029E0003B681A68444B9A4215D83B681B685B00E9
:1029F000FA69B2FBF3F3BB84BB8C032B01D804232D
:102A0000BB84FA8CBB8C1343FB847B8C01339AB25E
:102A10007B681A8440E03B68DA884BF6FF739A4281
:102A200009D13B681A6813465B001344FA69B2FB8C
:102A3000F3F3BB840EE03B681A6813469B00134413
:102A40009A001344FA69B2FBF3F3BB84BB8C43F4E2
:102A50008043BB84BB8CC3F30B03002B03D1BB8C23
:102A600043F00103BB84BA8CFB8C13439BB26FEA27
:102A700043436FEA5343FB847B8C4FF4967202FB13
:102A800003F31E4A82FB03129211DB17D31A9BB287
:102A900001339AB27B681A847B68FA8C9A837B68CC
:102AA0001B889BB243F001039AB27B681A807B6853
:102AB0001B88FB84FB8C23F4816323F00203FB84DB
:102AC0003B689A883B685B8913439AB2FB8C13433B
:102AD000FB847B68FA8C1A803B689A893B681B8967
:102AE00013439AB27B681A812837BD4680BD00BF68
:102AF00000127A0083DE1B43A0860100D34D6210D2
:102B000080B483B000AF78600B46FB70FB78002B7D
:102B100008D07B681B889BB243F001039AB27B68A4
:102B20001A8007E07B681B889BB223F001039AB2EE
:102B30007B681A800C37BD465DF8047B704700BF88
:102B400080B483B000AF78600B46FB70FB78002B3D
:102B500008D07B681B889BB243F480739AB27B6871
:102B60001A8007E07B681B889BB223F480739AB2BB
:102B70007B681A800C37BD465DF8047B704700BF48
:102B800080B483B000AF78600B46FB70FB78002BFD
:102B900008D07B681B889BB243F400739AB27B68B1
:102BA0001A8007E07B681B889BB223F400739AB2FB
:102BB0007B681A800C37BD465DF8047B704700BF08
:102BC00080B483B000AF786013460A46FA70BB70D9
:102BD000BB78002B04D0FB7843F00103FB7003E0CB
:102BE000FB7823F00103FB70FB789AB27B681A82B2
:102BF0000C37BD465DF8047B704700BF80B483B0DE
:102C000000AF78600B46FB70FB78002B08D07B6828
:102C10001B889BB243F480639AB27B681A8007E0FA
:102C20007B681B889BB223F480639AB27B681A800E
:102C30000C37BD465DF8047B704700BF80B483B09D
:102C400000AF78600B46FB70FB78002B0AD07B68E6
:102C50001B889BB26FEA43436FEA53439AB27B6887
:102C60001A8007E07B681B889BB2C3F30E039AB2FD
:102C70007B681A800C37BD465DF8047B704700BF47
:102C800080B483B000AF78600B46FB70FB789AB2DB
:102C90007B681A820C37BD465DF8047B704700BF25
:102CA00080B483B000AF78607B681B8A9BB2DBB2D4
:102CB00018460C37BD465DF8047B704780B487B07A
:102CC00000AF786039600023FB7500233B6100236F
:102CD000FB607B68FB603B681B0F3B613B6823F03C
:102CE0007F433B603B69002B03D0FB681433FB60E0
:102CF00005E03B681B0C3B60FB681833FB60FB681E
:102D00001A683B681340002B02D00123FB7501E0D9
:102D10000023FB75FB7D18461C37BD465DF8047B20
:102D2000704700BF80B485B000AF78600023FB73AC
:102D30000023BB730F237B737B68DB78002B37D0BA
:102D4000254BDB68DB4303F4E0631B0AFB73FB7B6F
:102D5000C3F10403BB737A7BFB7B42FA03F37B73FF
:102D60007B685B781A46BB7B02FA03F3FB737B68D4
:102D70009A787B7B1340DAB2FB7B1343FB73FB7BBC
:102D80001B01FB73154A7B681B781344FA7B83F89D
:102D90000023124B7A6812785209D2B27968097806
:102DA00001F01F01012000FA01F143F822100EE0AA
:102DB0000A4B7A6812785209D2B27968097801F020
:102DC0001F01012000FA01F1203243F822101437CC
:102DD000BD465DF8047B704700ED00E000E100E0D7
:102DE00080B582B000AF2A4B1B78002B4DD14FF439
:102DF00080000121FEF7D2F8264B9B68184601217E
:102E0000FEF7AEF8234B9B6918460121FEF7A8F8A0
:102E10004FF480000121FEF7FDF84FF480000021FF
:102E2000FEF7F8F81B4B1A681A4B1B7B1046194625
:102E30000422FEF737FC174B1A69164B1B7F10460E
:102E400019460422FEF72EFC02233B7102237B71FC
:102E50000123BB710023FB710E4B9B883B600D4B24
:102E60001A683B4610461946FEF78EFB094B9B8AB3
:102E70003B60084B1A693B4610461946FEF784FB37
:102E800000F0C0F9024B01221A700837BD4680BD20
:102E9000840100207800002080B584B000AF024695
:102EA0000B46FA71BB7100237B814FF44053FB60EA
:102EB00071480121FFF744FE4FF44053FB600CE0E2
:102EC000FB68002B03D0FB68013BFB6005E04FF083
:102ED000FF3000F0B9F90346C8E067486749FFF7DB
:102EE000EDFE0346002BEBD063480021FFF786FE82
:102EF000FB79614819460022FFF762FE4FF4405308
:102F0000FB600CE0FB68002B03D0FB68013BFB601F
:102F100005E06FF0010000F097F90346A6E056487F
:102F20005749FFF7CBFE0346002BEBD0524B1B8BD0
:102F30004FF44053FB600CE0FB68002B03D0FB68B0
:102F4000013BFB6005E06FF0020000F07DF90346F5
:102F50008CE049484B49FFF7B1FE0346002BEBD00C
:102F6000BB7945481946FFF78BFE4FF44053FB6091
:102F70000CE0FB68002B03D0FB68013BFB6005E025
:102F80006FF0030000F060F903466FE03A483D49F6
:102F9000FFF794FE0346002BEBD037483A49FFF782
:102FA0008DFE0346002BE4D033480121FFF7C8FD16
:102FB0004FF44053FB600CE0FB68002B03D0FB6830
:102FC000013BFB6005E06FF0040000F03DF90346B3
:102FD0004CE029482949FFF771FE0346002BEBD04E
:102FE000FB79254819460122FFF7EAFD4FF44053CB
:102FF000FB600CE0FB68002B03D0FB68013BFB602F
:1030000005E06FF0050000F01FF903462EE01A48B6
:103010001B49FFF753FE0346002BEBD0164B1B8BCF
:103020004FF44053FB600CE0FB68002B03D0FB68BF
:10303000013BFB6005E06FF0060000F005F9034678
:1030400014E00D481149FFF739FE0346002BEBD081
:1030500009480121FFF794FD0748FFF721FE0346C9
:103060007B8105480121FFF7C9FD7B891BB218460A
:103070001037BD4680BD00BF005800400100001061
:10308000020000108000001004000010400000103A
:1030900080B584B000AF13460246FA710A46BA7191
:1030A0007B7100237B814FF44053FB60504801212A
:1030B000FFF746FD4FF44053FB600CE0FB68002B2C
:1030C00003D0FB68013BFB6005E04FF0FF3000F0F0
:1030D000BBF8034686E046484649FFF7EFFD034646
:1030E000002BEBD0FB79424819460022FFF768FD20
:1030F0004FF44053FB600CE0FB68002B03D0FB68EF
:10310000013BFB6005E06FF0010000F09DF8034615
:1031100068E037483849FFF7D1FD0346002BEBD074
:10312000334B1B8B4FF44053FB600CE0FB68002BD0
:1031300003D0FB68013BFB6005E06FF0020000F08C
:1031400083F803464EE02A482C49FFF7B7FD0346B3
:10315000002BEBD0BB7926481946FFF791FD4FF4C1
:103160004053FB600CE0FB68002B03D0FB68013B85
:10317000FB6005E06FF0030000F066F8034631E005
:103180001B481E49FFF79AFD0346002BEBD07B79C5
:1031900017481946FFF774FD4FF44053FB600CE0ED
:1031A000FB68002B03D0FB68013BFB6005E06FF080
:1031B000040000F049F8034614E00D480F49FFF7FA
:1031C0007DFD0346002BEBD009480D49FFF776FD46
:1031D0000346002BE4D006480121FFF7D1FC002371
:1031E0007B817B891BB218461037BD4680BD00BF6E
:1031F0000058004001000010020000108000001084
:103200000400001080B584B000AF0023BB804BF6F3
:10321000FF73FB8000233B814FF480637B814FF47D
:103220008043BB81064B3B6006480121FFF768FCE9
:103230003B4604481946FFF7A1FB1037BD4680BD49
:10324000A08601000058004080B584B000AF03465E
:10325000FB80FB88FB810B480121FFF791FC0948AB
:103260000121FFF7EBFC07480021FFF7E7FC0548C9
:10327000FFF74AFBFFF7C6FFFB891BB21846103762
:10328000BD4680BD0058004080B584B002AF786074
:1032900079807A703B707B88002B00D10CE07868D5
:1032A00000F06CF879887A783B78387C0090387D2B
:1032B0000190786800F078F80837BD4680BD00BFFF
:1032C00080B586B002AF786079807A703B707B8879
:1032D000002B00D13CE0786800F050F80023FB6040
:1032E00028E07A88FB6842FA03F303F00103002B1D
:1032F00000D11CE0FB68DA08FB68D9087B6808315C
:1033000053F82110FB6803F007039B000F2000FA1D
:1033100003F3DB431940387FFB6803F007039B008E
:1033200000FA03F319437B68083243F82210FB6864
:103330000133FB60FB680F2BD3D97A887B7839780F
:103340000091397E019178681146022200F02CF834
:103350001037BD4680BD00BF80B483B000AF786039
:103360007B6803F13F4303F57E039B0A9BB218463B
:103370000C37BD465DF8047B704700BFB0B582B026
:1033800000AF7860074C074B1D6B7868FFF7E4FFD0
:103390000346012202FA03F32B4323630837BD4699
:1033A000B0BD00BF0038024080B584B000AF786087
:1033B00079807A703B707868FFF7CEFF0346BB7365
:1033C0000023FB7366E07A88FB7B42FA03F303F089
:1033D0000103002B00D15AE0BA7BB97B304B33F8A4
:1033E000113099B2FB7B012000FA03F39BB20B432F
:1033F0009BB299B22A4B23F812107B68DA68FB7BE8
:103400005B00032101FA03F3DB431A40397EFB7BA7
:103410005B0001FA03F31A437B68DA607B681A6881
:10342000FB7B5B00032101FA03F3DB431A4079784D
:10343000FB7B5B0001FA03F31A437B681A607B781D
:10344000012B02D07B78022B21D17B685A68FB7B51
:10345000012101FA03F39BB2DB431A403978FB7B6D
:1034600001FA03F39BB21A437B685A607B689A683F
:10347000FB7B5B00032101FA03F3DB431A40397F36
:10348000FB7B5B0001FA03F31A437B689A60FB7BCA
:103490000133FB73FB7B0F2B95D91037BD4680BDE5
:1034A0008801002080B586B000AF7860396007F1F0
:1034B00008031846FDF7AAFC3B684FF6FF729A60B6
:1034C0007B68B3F1804F03D07A68294B9A4208D1C8
:1034D0007A693B681A603B684FF0FF325A600023FC
:1034E00042E07A68234B9A420FD07A68224B9A4284
:1034F0000BD07A68214B9A4207D07A68204B9A42C7
:1035000003D07A681F4B9A4208D1FA683B681A6068
:103510003B684FF6FF725A60002325E07A681A4B29
:103520009A4217D07A68194B9A4213D07A68184B8E
:103530009A420FD07A68174B9A420BD07A68164B92
:103540009A4207D07A68154B9A4203D07A68144B96
:103550009A4208D17A693B681A603B684FF6FF725D
:103560005A60002300E0022318461837BD4680BD8C
:10357000000C0040000001400004014000400140F8
:1035800000440140004801400004004000080040A1
:10359000001000400014004000180040001C0040D3
:1035A0000020004080B584B000AFF860C7E9002378
:1035B000FB681B68184600F033FE02460B461046B7
:1035C0001946D7E9002301F013F90346002B0AD06E
:1035D000FB6800221A61FB680022DA60FB680022A7
:1035E0005A6103236DE0D7E900014FF000024FF06C
:1035F000000301F0F3F80346002B0AD0FB68002219
:103600001A61FB680022DA60FB6800225A61042319
:1036100057E0FB685B68B3F5803F04D2FB685B68EA
:103620005A1CFB685A60FB6800221A61FB681A6822
:10363000FB681B690133B2FBF3F2FB68DA60FB68DD
:10364000DB68184600F0ECFD02460B4610461946B2
:10365000D7E9002300F084FF02460B4610461946C6
:1036600001F0EEF80246FB68DA60FB681B695A1C41
:10367000FB681A61FB68DA68FB685B689A4206D9E6
:10368000FB681A69FB689B6801339A42CED9FB68D4
:103690001A69FB689B6801339A420AD9FB680022C9
:1036A0001A61FB680022DA60FB6800225A61042379
:1036B00007E0D7E9000101F0C3F80246FB685A6150
:1036C000002318461037BD4680BD00BF80B483B0CC
:1036D00000AF78607A68494B9A4205D1484B484A16
:1036E000526C42F001025A647B68B3F1804F05D1FD
:1036F000434B434A126C42F001021A647A68414B10
:103700009A4205D13E4B3E4A126C42F002021A64C4
:103710007A683D4B9A4205D1394B394A126C42F0D6
:1037200004021A647A68394B9A4205D1344B344A00
:10373000126C42F008021A647A68354B9A4205D13D
:103740002F4B2F4A126C42F010021A647A68314BE8
:103750009A4205D12A4B2A4A126C42F020021A647E
:103760007A682D4B9A4205D1254B254A526C42F07E
:1037700002025A647A68294B9A4205D1204B204AAA
:10378000526C42F480325A647A68254B9A4205D1D1
:103790001B4B1B4A526C42F400325A647A68214B2C
:1037A0009A4205D1164B164A526C42F480225A6452
:1037B0007A681D4B9A4205D1114B114A126C42F0A6
:1037C00040021A647A68194B9A4205D10C4B0C4A94
:1037D000126C42F080021A647A68154B9A4205D145
:1037E000074B074A126C42F480721A640023184691
:1037F0000C37BD465DF8047B704700BF00000140F8
:10380000003802400004004000080040000C004066
:10381000001000400014004000040140004001403E
:10382000004401400048014000180040001C0040D6
:103830000020004080B485B000AF7860396000237C
:10384000FB817B681B88FB817A68284B9A4213D0E6
:103850007A68274B9A420FD07B68B3F1804F0BD028
:103860007A68244B9A4207D07A68234B9A4203D055
:103870007A68224B9A4208D1FB8923F07003FB81BE
:103880003B685A88FB891343FB817A681C4B9A4238
:103890000CD07A681B4B9A4208D0FB8923F4407302
:1038A000FB813B681A89FB891343FB817B68FA899A
:1038B0001A803B685A687B68DA623B681A887B68C2
:1038C0001A857A68094B9A4203D07A68084B9A4263
:1038D00004D13B689B7A1A467B681A867B68012272
:1038E0009A821437BD465DF8047B704700000140A2
:1038F000000401400004004000080040000C0040AB
:10390000001000400014004080B483B000AF786025
:103910000B46FB70FB78002B08D07B681B889BB2A2
:1039200043F080039AB27B681A8007E07B681B88AB
:103930009BB223F080039AB27B681A800C37BD4695
:103940005DF8047B704700BF80B485B000AF78603D
:10395000396000237B810023FB810023BB817B68CE
:103960001B8C9BB223F001039AB27B681A847B689C
:103970001B8CFB817B689B88BB817B681B8B7B815D
:103980007B8923F070037B817B8923F003037B8198
:103990003B681A887B8913437B81FB8923F00203F0
:1039A000FB813B689A89FB891343FB813B685A88FA
:1039B000FB891343FB817A681E4B9A4203D07A68D5
:1039C0001D4B9A4223D1FB8923F00803FB813B68FE
:1039D000DA89FB891343FB81FB8923F00403FB8114
:1039E0003B689A88FB891343FB81BB8923F480736E
:1039F000BB81BB8923F40073BB813B681A8ABB89F6
:103A00001343BB813B685A8ABB891343BB817B68E4
:103A1000BA899A807B687A891A833B689A687B683E
:103A20005A637B68FA891A841437BD465DF8047BB3
:103A3000704700BF000001400004014080B485B021
:103A400000AF7860396000237B810023FB81002375
:103A5000BB817B681B8C9BB223F010039AB27B68FE
:103A60001A847B681B8CFB817B689B88BB817B688D
:103A70001B8B7B817B8923F4E0437B817B8923F44F
:103A800040737B813B681B881B029AB27B8913437E
:103A90007B81FB8923F02003FB813B689B891B0111
:103AA0009AB2FB891343FB813B685B881B019AB286
:103AB000FB891343FB817A68224B9A4203D07A68D0
:103AC000214B9A422BD1FB8923F08003FB813B6879
:103AD000DB891B019AB2FB891343FB81FB8923F02D
:103AE0004003FB813B689B881B019AB2FB8913430F
:103AF000FB81BB8923F48063BB81BB8923F4006312
:103B0000BB813B681B8A9B009AB2BB891343BB8174
:103B10003B685B8A9B009AB2BB891343BB817B687D
:103B2000BA899A807B687A891A833B689A687B682D
:103B30009A637B68FA891A841437BD465DF8047B62
:103B4000704700BF000001400004014080B485B010
:103B500000AF7860396000237B810023FB81002364
:103B6000BB817B681B8C9BB223F480739AB27B6809
:103B70001A847B681B8CFB817B689B88BB817B687C
:103B80009B8B7B817B8923F070037B817B8923F076
:103B900003037B813B681A887B8913437B81FB8904
:103BA00023F40073FB813B689B891B029AB2FB895B
:103BB0001343FB813B685B881B029AB2FB8913436A
:103BC000FB817A68224B9A4203D07A68214B9A4251
:103BD0002BD1FB8923F40063FB813B68DB891B024B
:103BE0009AB2FB891343FB81FB8923F48063FB8139
:103BF0003B689B881B029AB2FB891343FB81BB89FC
:103C000023F48053BB81BB8923F40053BB813B6801
:103C10001B8A1B019AB2BB891343BB813B685B8A39
:103C20001B019AB2BB891343BB817B68BA899A8016
:103C30007B687A899A833B689A687B68DA637B68D9
:103C4000FA891A841437BD465DF8047B704700BFBB
:103C5000000001400004014080B485B000AF7860EE
:103C600039600023BB8100237B810023FB817B68BB
:103C70001B8C9BB223F480539AB27B681A847B68B6
:103C80001B8C7B817B689B88FB817B689B8BBB81CA
:103C9000BB8923F4E043BB81BB8923F44073BB8120
:103CA0003B681B881B029AB2BB891343BB817B898B
:103CB00023F400537B813B689B891B039AB27B8969
:103CC00013437B813B685B881B039AB27B89134358
:103CD0007B817A68114B9A4203D07A68104B9A42E2
:103CE0000AD1FB8923F48043FB813B681B8A9B013B
:103CF0009AB2FB891343FB817B68FA899A807B68BF
:103D0000BA899A833B689A687B681A647B687A8967
:103D10001A841437BD465DF8047B704700000140EB
:103D20000004014080B485B000AF78600B467B8012
:103D30000023FB817B681B8BFB81FB8923F008033D
:103D4000FB81FA897B881343FB817B68FA891A839C
:103D50001437BD465DF8047B704700BF80B485B062
:103D600000AF78600B467B800023FB817B681B8B58
:103D7000FB81FB8923F40063FB817B881B029AB2E1
:103D8000FB891343FB817B68FA891A831437BD468C
:103D90005DF8047B704700BF80B485B000AF7860E9
:103DA0000B467B800023FB817B689B8BFB81FB891F
:103DB00023F00803FB81FA897B881343FB817B682E
:103DC000FA899A831437BD465DF8047B704700BFBB
:103DD00080B485B000AF78600B467B800023FB8108
:103DE0007B689B8BFB81FB8923F40063FB817B88D1
:103DF0001B029AB2FB891343FB817B68FA899A8381
:103E00001437BD465DF8047B704700BF80B483B0B3
:103E100000AF78600B46FB70FB78002B0CD07B6802
:103E2000B3F844309BB26FEA43436FEA53439AB20C
:103E30007B68A3F8442009E07B68B3F844309BB268
:103E4000C3F30E039AB27B68A3F844200C37BD4637
:103E50005DF8047B704700BF80B500AF00F034F818
:103E600000F06CF880BD00BF80B584B000AF0346A1
:103E7000FB710023FB81FA79114913469B0013441F
:103E80009B000B4410331B780E4819460122002377
:103E9000FDF776F90B48FDF737FA00BF0948022114
:103EA000FDF750FA0346002BF8D00648FDF73CFA20
:103EB0000346FB81FB8918461037BD4680BD00BF15
:103EC000980000200020014080B584B000AF00239E
:103ED000FB732AE0FA7B184913469B0013449B00AE
:103EE0000B4408335B6818460121FDF739F8FA7B6B
:103EF000114913469B0013449B000B4408331B8855
:103F00007B6003233B720023FB72FA7B0A49134652
:103F10009B0013449B000B445A683B1D10461946F6
:103F2000FDF732FBFB7B0133FB73FB7B072BD1D906
:103F30001037BD4680BD00BF9800002080B58AB014
:103F400000AF4FF480700121FDF746F80023BB61FC
:103F50004FF48033FB6100233B6200237B6207F157
:103F600018031846FDF7C8F800233B6000233B7197
:103F700000237B710023BB6000233B6101233B7561
:103F80003B4605481946FDF763F803480121FDF754
:103F9000DBF82837BD4680BD0020014081F000419C
:103FA00002E000BF83F0004330B54FEA41044FEA1E
:103FB000430594EA050F08BF90EA020F1FBF54EAB9
:103FC000000C55EA020C7FEA645C7FEA655C00F055
:103FD000E2804FEA5454D4EB5555B8BF6D420CDD26
:103FE0002C4480EA020281EA030382EA000083EAA9
:103FF000010180EA020281EA0303362D88BF30BD49
:1040000011F0004F4FEA01314FF4801C4CEA11319E
:1040100002D0404261EB410113F0004F4FEA0333FD
:104020004CEA133302D0524263EB430394EA050F88
:1040300000F0A780A4F10104D5F1200E0DDB02FAF7
:104040000EFC22FA05F2801841F1000103FA0EF28B
:10405000801843FA05F359410EE0A5F120050EF151
:10406000200E012A03FA0EFC28BF4CF0020C43FA82
:1040700005F3C01851EBE37101F0004507D54FF08F
:10408000000EDCF1000C7EEB00006EEB0101B1F5DF
:10409000801F1BD3B1F5001F0CD349085FEA300025
:1040A0004FEA3C0C04F101044FEA445212F5800F30
:1040B00080F09A80BCF1004F08BF5FEA500C50F1CD
:1040C000000041EB045141EA050130BD5FEA4C0CB0
:1040D000404141EB010111F4801FA4F10104E9D139
:1040E00091F0000F04BF01460020B1FA81F308BF30
:1040F0002033A3F10B03B3F120020CDA0C3208DDFC
:1041000002F1140CC2F10C0201FA0CF021FA02F1D6
:104110000CE002F11402D8BFC2F1200C01FA02F146
:1041200020FA0CFCDCBF41EA0C019040E41AA2BF6B
:1041300001EB0451294330BD6FEA04041F3C1CDA33
:104140000C340EDC04F11404C4F1200220FA04F053
:1041500001FA02F340EA030021FA04F345EA0301FD
:1041600030BDC4F10C04C4F1200220FA02F001FABF
:1041700004F340EA0300294630BD21FA04F0294641
:1041800030BD94F0000F83F4801306BF81F48011DA
:104190000134013D4EE77FEA645C18BF7FEA655C4D
:1041A00029D094EA050F08BF90EA020F05D054EA1F
:1041B000000C04BF1946104630BD91EA030F1EBF24
:1041C0000021002030BD5FEA545C05D14000494128
:1041D00028BF41F0004130BD14F580043CBF01F51B
:1041E000801130BD01F0004545F0FE4141F4700101
:1041F0004FF0000030BD7FEA645C1ABF19461046DC
:104200007FEA655C1CBF0B46024650EA013406BFDC
:1042100052EA033591EA030F41F4002130BD00BF9B
:1042200090F0000F04BF0021704730B54FF4806458
:1042300004F132044FF000054FF0000150E700BFD9
:1042400090F0000F04BF0021704730B54FF4806438
:1042500004F1320410F0004548BF40424FF0000125
:104260003EE700BF42004FEAE2014FEA31014FEA68
:1042700002701FBF12F07F4393F07F4F81F06051B7
:10428000704792F0000F14BF93F07F4F704730B526
:104290004FF4607401F0004521F0004120E700BFB9
:1042A00050EA010208BF704730B54FF000050AE040
:1042B00050EA010208BF704730B511F0004502D541
:1042C000404261EB41014FF4806404F132045FEA43
:1042D000915C3FF4DCAE4FF003025FEADC0C18BFE8
:1042E00003325FEADC0C18BF033202EBDC02C2F1DE
:1042F000200300FA03FC20FA02F001FA03FE40EA70
:104300000E0021FA02F11444C1E600BF70B54FF06F
:10431000FF0C4CF4E06C1CEA11541DBF1CEA135551
:1043200094EA0C0F95EA0C0F00F0DEF82C4481EAB9
:10433000030621EA4C5123EA4C5350EA013518BFD9
:1043400052EA033541F4801143F4801338D0A0FBC6
:1043500002CE4FF00005E1FB02E506F00042E0FB73
:1043600003E54FF00006E1FB03569CF0000F18BF79
:104370004EF0010EA4F1FF04B6F5007F64F5407421
:1043800004D25FEA4E0E6D4146EB060642EAC621B4
:1043900041EA55514FEAC52040EA5E504FEACE2E21
:1043A000B4F1FD0C88BFBCF5E06F1ED8BEF1004F24
:1043B00008BF5FEA500E50F1000041EB045170BDA0
:1043C00006F0004646EA010140EA020081EA0301E4
:1043D000B4EB5C04C2BFD4EB0C0541EA045170BDE0
:1043E00041F480114FF0000E013C00F3AB8014F15A
:1043F000360FDEBF002001F0004170BDC4F10004A3
:10440000203C35DA0C341BDC04F11404C4F1200523
:1044100000FA05F320FA04F001FA05F240EA02007E
:1044200001F0004221F0004110EBD37021FA04F6B4
:1044300042EB06015EEA430E08BF20EAD37070BD6E
:10444000C4F10C04C4F1200500FA04F320FA05F0CD
:1044500001FA04F240EA020001F0004110EBD370CF
:1044600041F100015EEA430E08BF20EAD37070BD3F
:10447000C4F1200500FA05F24EEA020E20FA04F318
:1044800001FA05F243EA020321FA04F001F00041C7
:1044900021FA04F220EA020000EBD3705EEA430E38
:1044A00008BF20EAD37070BD94F0000F0FD101F067
:1044B0000046400041EB010111F4801F08BF013CA0
:1044C000F7D041EA060195F0000F18BF704703F0DE
:1044D0000046520043EB030313F4801F08BF013D65
:1044E000F7D043EA0603704794EA0C0F0CEA135521
:1044F00018BF95EA0C0F0CD050EA410618BF52EADB
:104500004306D1D181EA030101F000414FF00000E0
:1045100070BD50EA410606BF1046194652EA4306EE
:1045200019D094EA0C0F02D150EA013613D195EA62
:104530000C0F05D152EA03361CBF104619460AD1AA
:1045400081EA030101F0004141F0FE4141F47001B4
:104550004FF0000070BD41F0FE4141F4780170BDA4
:1045600070B54FF0FF0C4CF4E06C1CEA11541DBF09
:104570001CEA135594EA0C0F95EA0C0F00F0A7F80B
:10458000A4EB050481EA030E52EA03354FEA013138
:1045900000F088804FEA03334FF0805545EA13134B
:1045A00043EA12634FEA022245EA111545EA106513
:1045B0004FEA00260EF000419D4208BF964244F1AA
:1045C000FD0404F5407402D25B084FEA3202B61AC9
:1045D00065EB03055B084FEA32024FF480104FF49D
:1045E000002CB6EB020E75EB030E22BFB61A754611
:1045F00040EA0C005B084FEA3202B6EB020E75EBA4
:10460000030E22BFB61A754640EA5C005B084FEA0B
:104610003202B6EB020E75EB030E22BFB61A7546D8
:1046200040EA9C005B084FEA3202B6EB020E75EBE3
:10463000030E22BFB61A754640EADC0055EA060EA4
:1046400018D04FEA051545EA16754FEA06164FEAE7
:10465000C30343EA52734FEAC2025FEA1C1CC0D193
:1046600011F4801F0BD141EA00014FF000004FF020
:10467000004CB6E711F4801F04BF01430020B4F1E1
:10468000FD0C88BFBCF5E06F3FF6AFAEB5EB030C99
:1046900004BFB6EB020C5FEA500C50F1000041EB96
:1046A000045170BD0EF0004E4EEA113114EB5C0463
:1046B000C2BFD4EB0C0541EA045170BD41F4801136
:1046C0004FF0000E013C90E645EA060E8DE60CEA3E
:1046D000135594EA0C0F08BF95EA0C0F3FF43BAF5B
:1046E00094EA0C0F0AD150EA01347FF434AF95EA12
:1046F0000C0F7FF425AF104619462CE795EA0C0FF6
:1047000006D152EA03353FF4FDAE1046194622E7C2
:1047100050EA410618BF52EA43067FF4C5AE50EA9C
:1047200041047FF40DAF52EA43057FF4EBAE12E78C
:104730004FF0FF3C06E000BF4FF0010C02E000BF6D
:104740004FF0010C4DF804CD4FEA410C7FEA6C5C50
:104750004FEA430C18BF7FEA6C5C1BD001B050EAF3
:10476000410C0CBF52EA430C91EA030F02BF90EADE
:10477000020F0020704710F1000F91EA030F58BF9D
:10478000994208BF90422CBFD8176FEAE37040F0FF
:10479000010070474FEA410C7FEA6C5C02D150EA9D
:1047A000013C07D14FEA430C7FEA6C5CD6D152EA58
:1047B000033CD3D05DF8040B704700BF844610461D
:1047C00062468C461946634600E000BF01B5FFF71C
:1047D000B7FF002848BF10F1000F01BD4DF808EDEC
:1047E000FFF7F4FF0CBF012000205DF808FB00BFBD
:1047F0004DF808EDFFF7EAFF34BF012000205DF817
:1048000008FB00BF4DF808EDFFF7E0FF94BF012063
:1048100000205DF808FB00BF4DF808EDFFF7CEFF64
:1048200094BF012000205DF808FB00BF4DF808EDA3
:10483000FFF7C4FF34BF012000205DF808FB00BF74
:104840004A0011D212F5001211D20DD56FF478730F
:10485000B3EB62520ED44FEAC12343F0004343EA64
:10486000505323FA02F070474FF00000704750EAAF
:10487000013002D14FF0FF3070474FF00000704719
:1048800080F0004002E000BF81F0004142001FBF05
:104890005FEA410392EA030F7FEA226C7FEA236C0E
:1048A0006AD04FEA1262D2EB1363C1BFD218414003
:1048B00048404140B8BF5B42192B88BF704710F099
:1048C000004F40F4000020F07F4018BF404211F03C
:1048D000004F41F4000121F07F4118BF494292EAA4
:1048E000030F3FD0A2F1010241FA03FC10EB0C00D0
:1048F000C3F1200301FA03F100F0004302D549425D
:1049000060EB4000B0F5000F13D3B0F1807F06D309
:1049100040084FEA310102F10102FE2A51D2B1F101
:10492000004F40EBC25008BF20F0010040EA0300F6
:104930007047490040EB000010F4000FA2F10102A3
:10494000EDD1B0FA80FCACF1080CB2EB0C0200FA2D
:104950000CF0AABF00EBC25052421843BCBFD0407B
:104960001843704792F0000F81F4000106BF80F4F5
:1049700000000132013BB5E74FEA41037FEA226CB8
:1049800018BF7FEA236C21D092EA030F04D092F083
:10499000000F08BF0846704790EA010F1CBF0020B7
:1049A000704712F07F4F04D1400028BF40F0004014
:1049B000704712F100723CBF00F50000704700F034
:1049C000004343F0FE4040F4000070477FEA22625B
:1049D00016BF08467FEA23630146420206BF5FEA2C
:1049E000412390EA010F40F4800070474FF000032C
:1049F00004E000BF10F0004348BF40425FEA000CF3
:104A000008BF704743F0964301464FF000001CE09A
:104A100050EA010208BF70474FF000030AE000BFF0
:104A200050EA010208BF704711F0004302D540422E
:104A300061EB41015FEA010C02BF844601460020A0
:104A400043F0B64308BFA3F18053A3F50003BCFABB
:104A50008CF2083AA3EBC25310DB01FA02FC634468
:104A600000FA02FCC2F12002BCF1004F20FA02F26F
:104A700043EB020008BF20F00100704702F1200262
:104A800001FA02FCC2F1200250EA4C0021FA02F2C3
:104A900043EB020008BF20EADC7070474FF0FF0CC8
:104AA0001CEAD0521EBF1CEAD15392EA0C0F93EAC3
:104AB0000C0F6FD01A4480EA010C400218BF5FEA65
:104AC00041211ED04FF0006343EA501043EA5111D8
:104AD000A0FB01310CF00040B1F5000F3EBF4900D2
:104AE00041EAD3715B0040EA010062F17F02FD2AD6
:104AF0001DD8B3F1004F40EBC25008BF20F00100B9
:104B0000704790F0000F0CF0004C08BF49024CEACF
:104B1000502040EA51207F3AC2BFD2F1FF0340EA61
:104B2000C250704740F400004FF00003013A5DDCD2
:104B300012F1190FDCBF00F000407047C2F1000213
:104B4000410021FA02F1C2F1200200FA02FC5FEA00
:104B5000310040F1000053EA4C0308BF20EADC704A
:104B6000704792F0000F00F0004C02BF400010F4BC
:104B7000000F013AF9D040EA0C0093F0000F01F069
:104B8000004C02BF490011F4000F013BF9D041EA8B
:104B90000C018FE70CEAD15392EA0C0F18BF93EA8D
:104BA0000C0F0AD030F0004C18BF31F0004CD8D1B7
:104BB00080EA010000F00040704790F0000F17BF3E
:104BC00090F0004F084691F0000F91F0004F14D084
:104BD00092EA0C0F01D142020FD193EA0C0F03D1DC
:104BE0004B0218BF084608D180EA010000F00040DF
:104BF00040F0FE4040F40000704740F0FE4040F4BA
:104C0000400070474FF0FF0C1CEAD0521EBF1CEA58
:104C1000D15392EA0C0F93EA0C0F69D0A2EB030276
:104C200080EA010C49024FEA402037D04FF0805310
:104C300043EA111143EA10130CF000408B4238BFD5
:104C40005B0042F17D024FF4000C8B4224BF5B1AE3
:104C500040EA0C00B3EB510F24BFA3EB510340EA31
:104C60005C00B3EB910F24BFA3EB910340EA9C00DF
:104C7000B3EBD10F24BFA3EBD10340EADC001B014F
:104C800018BF5FEA1C1CE0D1FD2A3FF650AF8B42F3
:104C900040EBC25008BF20F0010070470CF0004C00
:104CA0004CEA50207F32C2BFD2F1FF0340EAC2502B
:104CB000704740F400004FF00003013A37E792F0EC
:104CC000000F00F0004C02BF400010F4000F013A4A
:104CD000F9D040EA0C0093F0000F01F0004C02BF45
:104CE000490011F4000F013BF9D041EA0C0195E7AE
:104CF0000CEAD15392EA0C0F08D142027FF47DAF47
:104D000093EA0C0F7FF470AF084676E793EA0C0F36
:104D100004D14B023FF44CAF08466EE730F0004C34
:104D200018BF31F0004CCAD130F000427FF45CAFC4
:104D300031F000437FF43CAF5FE700BF4FF0FF3C32
:104D400006E000BF4FF0010C02E000BF4FF0010C85
:104D50004DF804CD4FEA40024FEA41037FEA226C4E
:104D600018BF7FEA236C11D001B052EA530C18BF70
:104D700090EA010F58BFB2EB030088BFC81738BFD5
:104D80006FEAE17018BF40F0010070477FEA226CC3
:104D900002D15FEA402C05D17FEA236CE4D15FEABF
:104DA000412CE1D05DF8040B704700BF84460846F3
:104DB0006146FFE70FB5FFF7C9FF002848BF10F1B4
:104DC000000F0FBD4DF808EDFFF7F4FF0CBF0120F9
:104DD00000205DF808FB00BF4DF808EDFFF7EAFF83
:104DE00034BF012000205DF808FB00BF4DF808ED3E
:104DF000FFF7E0FF94BF012000205DF808FB00BF33
:104E00004DF808EDFFF7D2FF94BF012000205DF8B8
:104E100008FB00BF4DF808EDFFF7C8FF34BF0120C5
:104E200000205DF808FB00BF42000ED2B2F1FE4F39
:104E30000BD34FF09E03B3EB126209D44FEA002369
:104E400043F0004323FA02F070474FF00000704730
:104E500012F1610F01D1420202D14FF0FF307047D1
:104E60004FF00000704700BF57454C434F4D450081
:104E700000000000000000000000A04100004842C7
:0C4E80000000B442000002430000204388
:104E8C000000000000000400070000000048004083
:104E9C0000C2010027000000000C024000010000CD
:104EAC000800000008000000000C02400002000096
:104EBC0008000000090000000000B442C409000012
:104ECC00C8000000C8000000C8000000C8000000B6
:104EDC000000000001020304010203040607080994
:104EEC00007A030A00000000000000000102030425
:104EFC000607080946001B000004024000040000DD
:104F0C00020000000A00000000040240000800003B
:104F1C00020000000B00000000000000000802402E
:104F2C0001000000040000000A070000010000005E
:104F3C000008024002000000040000000B07000003
:104F4C000200000000080240040000000400000001
:104F5C000C070000030000000008024008000000DD
:104F6C00040000000D0700000400000000080240CF
:104F7C0010000000040000000E07000005000000F7
:104F8C000008024020000000040000000F07000091
:104F9C0006000000000002400200000001000000BA
:104FAC0001070000070000000000024004000000A0
:084FBC000100000002070000E3
:0400000508000000EF
:00000001FF
